{
  "contractName": "RsuReputation",
  "abi": [
    {
      "inputs": [],
      "stateMutability": "payable",
      "type": "constructor",
      "payable": true
    },
    {
      "anonymous": false,
      "inputs": [
        {
          "indexed": false,
          "internalType": "string",
          "name": "who",
          "type": "string"
        },
        {
          "indexed": false,
          "internalType": "int128",
          "name": "valor",
          "type": "int128"
        }
      ],
      "name": "Valor",
      "type": "event"
    },
    {
      "inputs": [],
      "name": "RepActual",
      "outputs": [
        {
          "internalType": "int128",
          "name": "",
          "type": "int128"
        }
      ],
      "stateMutability": "view",
      "type": "function",
      "constant": true
    },
    {
      "inputs": [],
      "name": "owner",
      "outputs": [
        {
          "internalType": "address",
          "name": "",
          "type": "address"
        }
      ],
      "stateMutability": "view",
      "type": "function",
      "constant": true
    },
    {
      "inputs": [
        {
          "internalType": "address",
          "name": "",
          "type": "address"
        },
        {
          "internalType": "uint256",
          "name": "",
          "type": "uint256"
        }
      ],
      "name": "reputations",
      "outputs": [
        {
          "internalType": "address",
          "name": "car",
          "type": "address"
        },
        {
          "internalType": "int128",
          "name": "reputationValue",
          "type": "int128"
        }
      ],
      "stateMutability": "view",
      "type": "function",
      "constant": true
    },
    {
      "inputs": [
        {
          "internalType": "uint256",
          "name": "",
          "type": "uint256"
        }
      ],
      "name": "statusEvent",
      "outputs": [
        {
          "internalType": "string",
          "name": "",
          "type": "string"
        }
      ],
      "stateMutability": "view",
      "type": "function",
      "constant": true
    },
    {
      "inputs": [
        {
          "internalType": "uint256",
          "name": "",
          "type": "uint256"
        }
      ],
      "name": "wms",
      "outputs": [
        {
          "internalType": "uint256",
          "name": "idMsg",
          "type": "uint256"
        },
        {
          "internalType": "address",
          "name": "assig",
          "type": "address"
        },
        {
          "internalType": "uint256",
          "name": "idAlert",
          "type": "uint256"
        },
        {
          "internalType": "bool",
          "name": "active",
          "type": "bool"
        },
        {
          "internalType": "uint256",
          "name": "timstamp",
          "type": "uint256"
        }
      ],
      "stateMutability": "view",
      "type": "function",
      "constant": true
    },
    {
      "inputs": [
        {
          "internalType": "uint256",
          "name": "",
          "type": "uint256"
        }
      ],
      "name": "wvmCount",
      "outputs": [
        {
          "internalType": "uint256",
          "name": "",
          "type": "uint256"
        }
      ],
      "stateMutability": "view",
      "type": "function",
      "constant": true
    },
    {
      "inputs": [
        {
          "internalType": "uint256",
          "name": "",
          "type": "uint256"
        },
        {
          "internalType": "uint256",
          "name": "",
          "type": "uint256"
        }
      ],
      "name": "wvms",
      "outputs": [
        {
          "internalType": "address",
          "name": "car",
          "type": "address"
        },
        {
          "internalType": "uint256",
          "name": "idMsg",
          "type": "uint256"
        },
        {
          "internalType": "address",
          "name": "assig",
          "type": "address"
        },
        {
          "internalType": "uint256",
          "name": "idAlert",
          "type": "uint256"
        },
        {
          "internalType": "bool",
          "name": "ack",
          "type": "bool"
        },
        {
          "internalType": "uint256",
          "name": "timstamp",
          "type": "uint256"
        }
      ],
      "stateMutability": "view",
      "type": "function",
      "constant": true
    },
    {
      "inputs": [
        {
          "internalType": "uint256",
          "name": "_idMsg",
          "type": "uint256"
        },
        {
          "internalType": "uint256",
          "name": "_idAlert",
          "type": "uint256"
        }
      ],
      "name": "registerWM",
      "outputs": [],
      "stateMutability": "nonpayable",
      "type": "function"
    },
    {
      "inputs": [
        {
          "internalType": "uint256",
          "name": "_idMsg",
          "type": "uint256"
        },
        {
          "internalType": "uint256",
          "name": "_idAlert",
          "type": "uint256"
        },
        {
          "internalType": "bool",
          "name": "_confirmation",
          "type": "bool"
        }
      ],
      "name": "registerWVM",
      "outputs": [],
      "stateMutability": "nonpayable",
      "type": "function"
    },
    {
      "inputs": [
        {
          "internalType": "address",
          "name": "_car",
          "type": "address"
        }
      ],
      "name": "getReputationByCar",
      "outputs": [
        {
          "internalType": "int128",
          "name": "",
          "type": "int128"
        }
      ],
      "stateMutability": "view",
      "type": "function",
      "constant": true
    },
    {
      "inputs": [
        {
          "internalType": "uint256",
          "name": "_idMsg",
          "type": "uint256"
        }
      ],
      "name": "totalWVMByIdWM",
      "outputs": [
        {
          "internalType": "uint256",
          "name": "",
          "type": "uint256"
        }
      ],
      "stateMutability": "view",
      "type": "function",
      "constant": true
    },
    {
      "inputs": [
        {
          "internalType": "uint256",
          "name": "_idMsg",
          "type": "uint256"
        }
      ],
      "name": "getAck",
      "outputs": [
        {
          "internalType": "int128",
          "name": "",
          "type": "int128"
        }
      ],
      "stateMutability": "view",
      "type": "function",
      "constant": true
    },
    {
      "inputs": [
        {
          "internalType": "uint256",
          "name": "_idMsg",
          "type": "uint256"
        }
      ],
      "name": "getNack",
      "outputs": [
        {
          "internalType": "int128",
          "name": "",
          "type": "int128"
        }
      ],
      "stateMutability": "view",
      "type": "function",
      "constant": true
    }
  ],
  "bytecode": "0x608060405233600160006101000a81548173ffffffffffffffffffffffffffffffffffffffff021916908373ffffffffffffffffffffffffffffffffffffffff16021790555061241d806100546000396000f3fe608060405234801561001057600080fd5b50600436106100cf5760003560e01c80637e600d251161008c578063bb853eef11610066578063bb853eef14610242578063d960689f14610272578063df598edc146102a2578063df7a52f2146102d2576100cf565b80637e600d25146101c05780638da5cb5b146101f0578063b84e87151461020e576100cf565b80632d64926a146100d45780633e64017314610105578063413f77f21461013a5780634e104356146101565780635b73a245146101745780637b0d229914610190575b600080fd5b6100ee60048036038101906100e99190611c42565b610302565b6040516100fc929190611f63565b60405180910390f35b61011f600480360381019061011a9190611cf9565b610370565b60405161013196959493929190611f8c565b60405180910390f35b610154600480360381019061014f9190611d35565b610416565b005b61015e61074f565b60405161016b9190611fed565b60405180910390f35b61018e60048036038101906101899190611cf9565b610762565b005b6101aa60048036038101906101a59190611ca7565b610841565b6040516101b79190611fed565b60405180910390f35b6101da60048036038101906101d59190611ca7565b610904565b6040516101e79190611fed565b60405180910390f35b6101f86109c6565b6040516102059190611f48565b60405180910390f35b61022860048036038101906102239190611ca7565b6109ec565b60405161023995949392919061212b565b60405180910390f35b61025c60048036038101906102579190611ca7565b610a4f565b6040516102699190612110565b60405180910390f35b61028c60048036038101906102879190611ca7565b610a67565b6040516102999190612008565b60405180910390f35b6102bc60048036038101906102b79190611c19565b610b07565b6040516102c99190611fed565b60405180910390f35b6102ec60048036038101906102e79190611ca7565b610bf4565b6040516102f99190612110565b60405180910390f35b6002602052816000526040600020818154811061031e57600080fd5b9060005260206000209060020201600091509150508060000160009054906101000a900473ffffffffffffffffffffffffffffffffffffffff16908060010160009054906101000a9004600f0b905082565b6005602052816000526040600020818154811061038c57600080fd5b9060005260206000209060060201600091509150508060000160009054906101000a900473ffffffffffffffffffffffffffffffffffffffff16908060010154908060020160009054906101000a900473ffffffffffffffffffffffffffffffffffffffff16908060030154908060040160009054906101000a900460ff16908060050154905086565b600560008481526020019081526020016000206040518060c001604052803373ffffffffffffffffffffffffffffffffffffffff1681526020018581526020013373ffffffffffffffffffffffffffffffffffffffff168152602001848152602001831515815260200142815250908060018154018082558091505060019003906000526020600020906006020160009091909190915060008201518160000160006101000a81548173ffffffffffffffffffffffffffffffffffffffff021916908373ffffffffffffffffffffffffffffffffffffffff1602179055506020820151816001015560408201518160020160006101000a81548173ffffffffffffffffffffffffffffffffffffffff021916908373ffffffffffffffffffffffffffffffffffffffff1602179055506060820151816003015560808201518160040160006101000a81548160ff02191690831515021790555060a082015181600501555050600a3073ffffffffffffffffffffffffffffffffffffffff1663df7a52f2856040518263ffffffff1660e01b81526004016105b69190612110565b60206040518083038186803b1580156105ce57600080fd5b505afa1580156105e2573d6000803e3d6000fd5b505050506040513d601f19601f820116820180604052508101906106069190611cd0565b1061074a5760003073ffffffffffffffffffffffffffffffffffffffff16637b0d2299856040518263ffffffff1660e01b81526004016106469190612110565b60206040518083038186803b15801561065e57600080fd5b505afa158015610672573d6000803e3d6000fd5b505050506040513d601f19601f820116820180604052508101906106969190611c7e565b905060003073ffffffffffffffffffffffffffffffffffffffff16637e600d25866040518263ffffffff1660e01b81526004016106d39190612110565b60206040518083038186803b1580156106eb57600080fd5b505afa1580156106ff573d6000803e3d6000fd5b505050506040513d601f19601f820116820180604052508101906107239190611c7e565b9050600061073a836107358585610cac565b610d13565b90506107468682610dc3565b5050505b505050565b600360009054906101000a9004600f0b81565b6040518060a001604052808381526020013373ffffffffffffffffffffffffffffffffffffffff16815260200182815260200160011515815260200142815250600460008481526020019081526020016000206000820151816000015560208201518160010160006101000a81548173ffffffffffffffffffffffffffffffffffffffff021916908373ffffffffffffffffffffffffffffffffffffffff1602179055506040820151816002015560608201518160030160006101000a81548160ff021916908315150217905550608082015181600401559050505050565b6000806001905060005b60056000858152602001908152602001600020805490508110156108fa576005600085815260200190815260200160002081815481106108b4577f4e487b7100000000000000000000000000000000000000000000000000000000600052603260045260246000fd5b906000526020600020906006020160040160009054906101000a900460ff16156108e75781806108e39061229a565b9250505b80806108f2906122d3565b91505061084b565b5080915050919050565b6000806001905060005b60056000858152602001908152602001600020805490508110156109bc57600560008581526020019081526020016000208181548110610977577f4e487b7100000000000000000000000000000000000000000000000000000000600052603260045260246000fd5b906000526020600020906006020160040160009054906101000a900460ff166109a95781806109a59061229a565b9250505b80806109b4906122d3565b91505061090e565b5080915050919050565b600160009054906101000a900473ffffffffffffffffffffffffffffffffffffffff1681565b60046020528060005260406000206000915090508060000154908060010160009054906101000a900473ffffffffffffffffffffffffffffffffffffffff16908060020154908060030160009054906101000a900460ff16908060040154905085565b60066020528060005260406000206000915090505481565b60076020528060005260406000206000915090508054610a8690612268565b80601f0160208091040260200160405190810160405280929190818152602001828054610ab290612268565b8015610aff5780601f10610ad457610100808354040283529160200191610aff565b820191906000526020600020905b815481529060010190602001808311610ae257829003601f168201915b505050505081565b6000600260008373ffffffffffffffffffffffffffffffffffffffff1673ffffffffffffffffffffffffffffffffffffffff1681526020019081526020016000206001600260008573ffffffffffffffffffffffffffffffffffffffff1673ffffffffffffffffffffffffffffffffffffffff16815260200190815260200160002080549050610b97919061219a565b81548110610bce577f4e487b7100000000000000000000000000000000000000000000000000000000600052603260045260246000fd5b906000526020600020906002020160010160009054906101000a9004600f0b9050919050565b6000806000905060005b6005600085815260200190815260200160002080549050811015610ca25783600560008681526020019081526020016000208281548110610c68577f4e487b7100000000000000000000000000000000000000000000000000000000600052603260045260246000fd5b9060005260206000209060060201600101541415610c8f578180610c8b906122d3565b9250505b8080610c9a906122d3565b915050610bfe565b5080915050919050565b60008082600f0b84600f0b0190507fffffffffffffffffffffffffffffffff80000000000000000000000000000000600f0b8112158015610d0057506f7fffffffffffffffffffffffffffffff600f0b8113155b610d0957600080fd5b8091505092915050565b60008082600f0b1415610d2557600080fd5b600082600f0b604085600f0b901b81610d67577f4e487b7100000000000000000000000000000000000000000000000000000000600052601260045260246000fd5b0590507fffffffffffffffffffffffffffffffff80000000000000000000000000000000600f0b8112158015610db057506f7fffffffffffffffffffffffffffffff600f0b8113155b610db957600080fd5b8091505092915050565b678cd87dba7170800081600f0b13156113d7576040518060400160405280600a81526020017f54525545204556454e5400000000000000000000000000000000000000000000815250600760008481526020019081526020016000209080519060200190610e32929190611b0d565b506000600260006004600086815260200190815260200160002060010160009054906101000a900473ffffffffffffffffffffffffffffffffffffffff1673ffffffffffffffffffffffffffffffffffffffff1673ffffffffffffffffffffffffffffffffffffffff168152602001908152602001600020805490501115611211576000600260006004600086815260200190815260200160002060010160009054906101000a900473ffffffffffffffffffffffffffffffffffffffff1673ffffffffffffffffffffffffffffffffffffffff1673ffffffffffffffffffffffffffffffffffffffff1681526020019081526020016000206001600260006004600088815260200190815260200160002060010160009054906101000a900473ffffffffffffffffffffffffffffffffffffffff1673ffffffffffffffffffffffffffffffffffffffff1673ffffffffffffffffffffffffffffffffffffffff16815260200190815260200160002080549050610fb0919061219a565b81548110610fe7577f4e487b7100000000000000000000000000000000000000000000000000000000600052603260045260246000fd5b906000526020600020906002020160010160009054906101000a9004600f0b905060006110148284611a18565b905060006110348261102f6110298687611a18565b87611a18565b611a83565b905060006110428483610cac565b90507f0e88b79b6e34250f2cddaf19fac50717bb484f88591856e66c88701fcf1904cc8160405161107391906120b4565b60405180910390a1600260006004600089815260200190815260200160002060010160009054906101000a900473ffffffffffffffffffffffffffffffffffffffff1673ffffffffffffffffffffffffffffffffffffffff1673ffffffffffffffffffffffffffffffffffffffff1681526020019081526020016000206040518060400160405280600460008a815260200190815260200160002060010160009054906101000a900473ffffffffffffffffffffffffffffffffffffffff1673ffffffffffffffffffffffffffffffffffffffff16815260200183600f0b815250908060018154018082558091505060019003906000526020600020906002020160009091909190915060008201518160000160006101000a81548173ffffffffffffffffffffffffffffffffffffffff021916908373ffffffffffffffffffffffffffffffffffffffff16021790555060208201518160010160006101000a8154816fffffffffffffffffffffffffffffffff0219169083600f0b6fffffffffffffffffffffffffffffffff1602179055505050505050506113d6565b600260006004600085815260200190815260200160002060010160009054906101000a900473ffffffffffffffffffffffffffffffffffffffff1673ffffffffffffffffffffffffffffffffffffffff1673ffffffffffffffffffffffffffffffffffffffff16815260200190815260200160002060405180604001604052806004600086815260200190815260200160002060010160009054906101000a900473ffffffffffffffffffffffffffffffffffffffff1673ffffffffffffffffffffffffffffffffffffffff16815260200183600f0b815250908060018154018082558091505060019003906000526020600020906002020160009091909190915060008201518160000160006101000a81548173ffffffffffffffffffffffffffffffffffffffff021916908373ffffffffffffffffffffffffffffffffffffffff16021790555060208201518160010160006101000a8154816fffffffffffffffffffffffffffffffff0219169083600f0b6fffffffffffffffffffffffffffffffff16021790555050507f0e88b79b6e34250f2cddaf19fac50717bb484f88591856e66c88701fcf1904cc816040516113cd919061202a565b60405180910390a15b5b6773530cf8c37f000081600f0b12156119dc576040518060400160405280600b81526020017f424f475553204556454e54000000000000000000000000000000000000000000815250600760008481526020019081526020016000209080519060200190611446929190611b0d565b506000600260006004600086815260200190815260200160002060010160009054906101000a900473ffffffffffffffffffffffffffffffffffffffff1673ffffffffffffffffffffffffffffffffffffffff1673ffffffffffffffffffffffffffffffffffffffff16815260200190815260200160002080549050111561184d577f0e88b79b6e34250f2cddaf19fac50717bb484f88591856e66c88701fcf1904cc816040516114f79190612086565b60405180910390a16000600260006004600086815260200190815260200160002060010160009054906101000a900473ffffffffffffffffffffffffffffffffffffffff1673ffffffffffffffffffffffffffffffffffffffff1673ffffffffffffffffffffffffffffffffffffffff1681526020019081526020016000206001600260006004600088815260200190815260200160002060010160009054906101000a900473ffffffffffffffffffffffffffffffffffffffff1673ffffffffffffffffffffffffffffffffffffffff1673ffffffffffffffffffffffffffffffffffffffff168152602001908152602001600020805490506115fb919061219a565b81548110611632577f4e487b7100000000000000000000000000000000000000000000000000000000600052603260045260246000fd5b906000526020600020906002020160010160009054906101000a9004600f0b90506000611668826116638486611a18565b610cac565b9050600061167f8261167a6002611aea565b610d13565b90507f0e88b79b6e34250f2cddaf19fac50717bb484f88591856e66c88701fcf1904cc816040516116b091906120e2565b60405180910390a1600260006004600088815260200190815260200160002060010160009054906101000a900473ffffffffffffffffffffffffffffffffffffffff1673ffffffffffffffffffffffffffffffffffffffff1673ffffffffffffffffffffffffffffffffffffffff16815260200190815260200160002060405180604001604052806004600089815260200190815260200160002060010160009054906101000a900473ffffffffffffffffffffffffffffffffffffffff1673ffffffffffffffffffffffffffffffffffffffff16815260200183600f0b815250908060018154018082558091505060019003906000526020600020906002020160009091909190915060008201518160000160006101000a81548173ffffffffffffffffffffffffffffffffffffffff021916908373ffffffffffffffffffffffffffffffffffffffff16021790555060208201518160010160006101000a8154816fffffffffffffffffffffffffffffffff0219169083600f0b6fffffffffffffffffffffffffffffffff16021790555050505050506119db565b600260006004600085815260200190815260200160002060010160009054906101000a900473ffffffffffffffffffffffffffffffffffffffff1673ffffffffffffffffffffffffffffffffffffffff1673ffffffffffffffffffffffffffffffffffffffff16815260200190815260200160002060405180604001604052806004600086815260200190815260200160002060010160009054906101000a900473ffffffffffffffffffffffffffffffffffffffff1673ffffffffffffffffffffffffffffffffffffffff16815260200183600f0b815250908060018154018082558091505060019003906000526020600020906002020160009091909190915060008201518160000160006101000a81548173ffffffffffffffffffffffffffffffffffffffff021916908373ffffffffffffffffffffffffffffffffffffffff16021790555060208201518160010160006101000a8154816fffffffffffffffffffffffffffffffff0219169083600f0b6fffffffffffffffffffffffffffffffff16021790555050505b5b7f0e88b79b6e34250f2cddaf19fac50717bb484f88591856e66c88701fcf1904cc6000604051611a0c9190612058565b60405180910390a15050565b600080604083600f0b85600f0b02901d90507fffffffffffffffffffffffffffffffff80000000000000000000000000000000600f0b8112158015611a7057506f7fffffffffffffffffffffffffffffff600f0b8113155b611a7957600080fd5b8091505092915050565b60008082600f0b84600f0b0390507fffffffffffffffffffffffffffffffff80000000000000000000000000000000600f0b8112158015611ad757506f7fffffffffffffffffffffffffffffff600f0b8113155b611ae057600080fd5b8091505092915050565b6000677fffffffffffffff821115611b0157600080fd5b604082901b9050919050565b828054611b1990612268565b90600052602060002090601f016020900481019282611b3b5760008555611b82565b82601f10611b5457805160ff1916838001178555611b82565b82800160010185558215611b82579182015b82811115611b81578251825591602001919060010190611b66565b5b509050611b8f9190611b93565b5090565b5b80821115611bac576000816000905550600101611b94565b5090565b600081359050611bbf8161238b565b92915050565b600081359050611bd4816123a2565b92915050565b600081519050611be9816123b9565b92915050565b600081359050611bfe816123d0565b92915050565b600081519050611c13816123d0565b92915050565b600060208284031215611c2b57600080fd5b6000611c3984828501611bb0565b91505092915050565b60008060408385031215611c5557600080fd5b6000611c6385828601611bb0565b9250506020611c7485828601611bef565b9150509250929050565b600060208284031215611c9057600080fd5b6000611c9e84828501611bda565b91505092915050565b600060208284031215611cb957600080fd5b6000611cc784828501611bef565b91505092915050565b600060208284031215611ce257600080fd5b6000611cf084828501611c04565b91505092915050565b60008060408385031215611d0c57600080fd5b6000611d1a85828601611bef565b9250506020611d2b85828601611bef565b9150509250929050565b600080600060608486031215611d4a57600080fd5b6000611d5886828701611bef565b9350506020611d6986828701611bef565b9250506040611d7a86828701611bc5565b9150509250925092565b611d8d816121ce565b82525050565b611d9c816121e0565b82525050565b611dab816121ec565b82525050565b611dba81612223565b82525050565b6000611dcb8261217e565b611dd58185612189565b9350611de5818560208601612235565b611dee8161237a565b840191505092915050565b6000611e06601f83612189565b91507f74727565206576656e7420636f6d2072657075746163616f207a6572616461006000830152602082019050919050565b6000611e46601383612189565b91507f626f677573206576656e7420706f7363616c63000000000000000000000000006000830152602082019050919050565b6000611e86601383612189565b91507f626f677573206576656e742070726563616c63000000000000000000000000006000830152602082019050919050565b6000611ec6601983612189565b91507f74727565206576656e74206d61696f722071756520302e3535000000000000006000830152602082019050919050565b6000611f06601d83612189565b91507f626f677573206576656e7420706f7363616c6320636f6d2076616c6f720000006000830152602082019050919050565b611f4281612219565b82525050565b6000602082019050611f5d6000830184611d84565b92915050565b6000604082019050611f786000830185611d84565b611f856020830184611da2565b9392505050565b600060c082019050611fa16000830189611d84565b611fae6020830188611f39565b611fbb6040830187611d84565b611fc86060830186611f39565b611fd56080830185611d93565b611fe260a0830184611f39565b979650505050505050565b60006020820190506120026000830184611da2565b92915050565b600060208201905081810360008301526120228184611dc0565b905092915050565b6000604082019050818103600083015261204381611df9565b90506120526020830184611da2565b92915050565b6000604082019050818103600083015261207181611e39565b90506120806020830184611db1565b92915050565b6000604082019050818103600083015261209f81611e79565b90506120ae6020830184611da2565b92915050565b600060408201905081810360008301526120cd81611eb9565b90506120dc6020830184611da2565b92915050565b600060408201905081810360008301526120fb81611ef9565b905061210a6020830184611da2565b92915050565b60006020820190506121256000830184611f39565b92915050565b600060a0820190506121406000830188611f39565b61214d6020830187611d84565b61215a6040830186611f39565b6121676060830185611d93565b6121746080830184611f39565b9695505050505050565b600081519050919050565b600082825260208201905092915050565b60006121a582612219565b91506121b083612219565b9250828210156121c3576121c261231c565b5b828203905092915050565b60006121d9826121f9565b9050919050565b60008115159050919050565b600081600f0b9050919050565b600073ffffffffffffffffffffffffffffffffffffffff82169050919050565b6000819050919050565b600061222e826121ec565b9050919050565b60005b83811015612253578082015181840152602081019050612238565b83811115612262576000848401525b50505050565b6000600282049050600182168061228057607f821691505b602082108114156122945761229361234b565b5b50919050565b60006122a5826121ec565b91506f7fffffffffffffffffffffffffffffff8214156122c8576122c761231c565b5b600182019050919050565b60006122de82612219565b91507fffffffffffffffffffffffffffffffffffffffffffffffffffffffffffffffff8214156123115761231061231c565b5b600182019050919050565b7f4e487b7100000000000000000000000000000000000000000000000000000000600052601160045260246000fd5b7f4e487b7100000000000000000000000000000000000000000000000000000000600052602260045260246000fd5b6000601f19601f8301169050919050565b612394816121ce565b811461239f57600080fd5b50565b6123ab816121e0565b81146123b657600080fd5b50565b6123c2816121ec565b81146123cd57600080fd5b50565b6123d981612219565b81146123e457600080fd5b5056fea26469706673582212207e1e27e1a41da436defc3f078475b3a376027560fd57f2ff689c75f8d343c53964736f6c63430008000033",
  "immutableReferences": {},
  "source": "// SPDX-License-Identifier: MIT\npragma solidity ^0.8.0;\n\nimport \"./ABDKMath64x64.sol\";\n\ncontract RsuReputation {\n    uint currentMappingVersion;\n    address public owner;\n    mapping(address => Reputation[]) public reputations;\n    int128 public RepActual;\n    mapping(uint => WM) public wms;\n    mapping(uint => WVM[]) public wvms;\n    mapping(uint => uint) public wvmCount;\n    mapping(uint => string) public statusEvent;\n    \n    constructor() payable {\n       owner = msg.sender;\n    }\n\n     struct WM {\n        uint idMsg;\n        address assig;\n        uint256 idAlert;\n        bool active;\n        uint256 timstamp;\n    }\n\n    struct WVM {\n        address car;\n        uint idMsg;\n        address assig;\n        uint256 idAlert;\n        bool ack;\n        uint256 timstamp;\n    }\n    \n     struct Reputation {\n        address car;\n        int128 reputationValue;\n    }\n    \n    function registerWM(uint _idMsg,uint256 _idAlert) public {\n        wms[_idMsg] = WM(\n            _idMsg,\n            msg.sender,\n            _idAlert,\n            true,\n            block.timestamp\n        );\n\n    }\n\n   \n     function registerWVM(uint _idMsg,uint256 _idAlert, bool _confirmation) public {\n        wvms[_idMsg].push(WVM(\n            msg.sender,\n            _idMsg,\n            msg.sender,\n            _idAlert,\n            _confirmation,\n            block.timestamp\n        ));\n        if(this.totalWVMByIdWM(_idMsg) >= 10){\n          int128 ack = this.getAck(_idMsg);\n          int128 nack = this.getNack(_idMsg);\n          int128 valorVerificador = ABDKMath64x64.div(ack,ABDKMath64x64.add(ack,nack));\n         \n           setNewReputation(_idMsg,valorVerificador);\n\n        }\n    }\n    \n    function setNewReputation(uint _idMsg, int128 valorVerificador) internal {\n        if(valorVerificador > 10149000000000000000) {\n              statusEvent[_idMsg] = \"TRUE EVENT\";\n            if(reputations[wms[_idMsg].assig].length > 0){\n                \n             int128 repActual = reputations[wms[_idMsg].assig][reputations[wms[_idMsg].assig].length-1].reputationValue;\n             \n             int128 valor1 = ABDKMath64x64.mul(repActual,valorVerificador);\n             \n             int128 valor2 = ABDKMath64x64.sub(valor1,ABDKMath64x64.mul(ABDKMath64x64.mul(repActual,repActual),valorVerificador));\n             \n             \n             int128 newValue = ABDKMath64x64.add(repActual,valor2);\n             \n             emit Valor(\"true event maior que 0.55\",newValue);\n             \n             reputations[wms[_idMsg].assig].push(\n                 Reputation(\n                     wms[_idMsg].assig,\n                     newValue\n                 )\n              );\n            } else {\n                \n                reputations[wms[_idMsg].assig].push(\n                     Reputation(\n                     wms[_idMsg].assig,\n                     valorVerificador\n                 )\n                    );\n                      emit Valor(\"true event com reputacao zerada\",valorVerificador);\n            }\n        }\n         if(valorVerificador < 8310000000000000000) {\n               statusEvent[_idMsg] = \"BOGUS EVENT\";\n              \n               if(reputations[wms[_idMsg].assig].length > 0){\n                   \n                    emit Valor(\"bogus event precalc\",valorVerificador);\n                   \n                  int128 repActual = reputations[wms[_idMsg].assig][reputations[wms[_idMsg].assig].length-1].reputationValue;\n                \n                  int128 numerator = ABDKMath64x64.add(repActual,ABDKMath64x64.mul(repActual,valorVerificador));\n                \n                  int128 newValue = ABDKMath64x64.div(numerator,ABDKMath64x64.fromUInt(2));\n                \n                  emit Valor(\"bogus event poscalc com valor\",newValue);\n                \n                  reputations[wms[_idMsg].assig].push(Reputation(wms[_idMsg].assig,newValue));\n                \n              } else {\n                   \n                reputations[wms[_idMsg].assig].push(Reputation(wms[_idMsg].assig,valorVerificador));\n              }\n         }\n         \n         emit Valor(\"bogus event poscalc\",0);\n\n    }\n    \n    function getReputationByCar(address _car) external view returns (int128) {\n        return reputations[_car][reputations[_car].length-1].reputationValue;\n    }\n    \n    \n    function totalWVMByIdWM(uint _idMsg) external view returns (uint256) {\n         uint countMsg = 0;\n         for (uint i = 0; i < wvms[_idMsg].length; i++) {\n             if(wvms[_idMsg][i].idMsg == _idMsg){\n                 countMsg++;\n             }\n         }\n        return countMsg;\n    }\n    \n    function getAck(uint _idMsg) external view returns (int128) {\n         int128 countAck = 1;\n         for (uint i = 0; i < wvms[_idMsg].length; i++) {\n             if(wvms[_idMsg][i].ack){\n                 countAck++;\n             }\n         }\n        return countAck;\n    }\n   function getNack(uint _idMsg) external view returns (int128) {\n         int128 countNack = 1;\n         for (uint i = 0; i < wvms[_idMsg].length; i++) {\n             if(!wvms[_idMsg][i].ack){\n                 countNack++;\n             }\n         }\n        return countNack;\n    }\n\n    event Valor(string who,int128 valor);\n\n}\n",
  "sourcePath": "/home/brunocosta/projetos/claudio/rsuchain/src/contracts/RsuReputation.sol",
  "compiler": {
    "name": "solc",
    "version": "0.8.0+commit.c7dfd78e.Emscripten.clang"
  },
  "schemaVersion": "3.4.1",
  "updatedAt": "2021-06-24T01:59:47.897Z",
  "networkType": "ethereum",
  "devdoc": {
    "kind": "dev",
    "methods": {},
    "version": 1
  },
  "userdoc": {
    "kind": "user",
    "methods": {},
    "version": 1
  }
}