{
    "contractName": "OchainMusic",
    "abi": [
        {
            "inputs": [],
            "stateMutability": "nonpayable",
            "type": "constructor"
        },
        {
            "anonymous": false,
            "inputs": [
                {
                    "indexed": true,
                    "internalType": "address",
                    "name": "owner",
                    "type": "address"
                },
                {
                    "indexed": true,
                    "internalType": "address",
                    "name": "approved",
                    "type": "address"
                },
                {
                    "indexed": true,
                    "internalType": "uint256",
                    "name": "tokenId",
                    "type": "uint256"
                }
            ],
            "name": "Approval",
            "type": "event"
        },
        {
            "anonymous": false,
            "inputs": [
                {
                    "indexed": true,
                    "internalType": "address",
                    "name": "owner",
                    "type": "address"
                },
                {
                    "indexed": true,
                    "internalType": "address",
                    "name": "operator",
                    "type": "address"
                },
                {
                    "indexed": false,
                    "internalType": "bool",
                    "name": "approved",
                    "type": "bool"
                }
            ],
            "name": "ApprovalForAll",
            "type": "event"
        },
        {
            "anonymous": false,
            "inputs": [
                {
                    "indexed": false,
                    "internalType": "uint256",
                    "name": "fileId",
                    "type": "uint256"
                },
                {
                    "indexed": false,
                    "internalType": "string",
                    "name": "fileHash",
                    "type": "string"
                },
                {
                    "indexed": false,
                    "internalType": "uint256",
                    "name": "fileSize",
                    "type": "uint256"
                },
                {
                    "indexed": false,
                    "internalType": "string",
                    "name": "fileType",
                    "type": "string"
                },
                {
                    "indexed": false,
                    "internalType": "string",
                    "name": "fileName",
                    "type": "string"
                },
                {
                    "indexed": false,
                    "internalType": "string",
                    "name": "fileDescription",
                    "type": "string"
                },
                {
                    "indexed": false,
                    "internalType": "uint256",
                    "name": "uploadTime",
                    "type": "uint256"
                },
                {
                    "indexed": false,
                    "internalType": "address",
                    "name": "forger",
                    "type": "address"
                }
            ],
            "name": "MintedNFT",
            "type": "event"
        },
        {
            "anonymous": false,
            "inputs": [
                {
                    "indexed": true,
                    "internalType": "address",
                    "name": "from",
                    "type": "address"
                },
                {
                    "indexed": true,
                    "internalType": "address",
                    "name": "to",
                    "type": "address"
                },
                {
                    "indexed": true,
                    "internalType": "uint256",
                    "name": "tokenId",
                    "type": "uint256"
                }
            ],
            "name": "Transfer",
            "type": "event"
        },
        {
            "inputs": [
                {
                    "internalType": "address",
                    "name": "to",
                    "type": "address"
                },
                {
                    "internalType": "uint256",
                    "name": "tokenId",
                    "type": "uint256"
                }
            ],
            "name": "approve",
            "outputs": [],
            "stateMutability": "nonpayable",
            "type": "function"
        },
        {
            "inputs": [
                {
                    "internalType": "address",
                    "name": "owner",
                    "type": "address"
                }
            ],
            "name": "balanceOf",
            "outputs": [
                {
                    "internalType": "uint256",
                    "name": "",
                    "type": "uint256"
                }
            ],
            "stateMutability": "view",
            "type": "function"
        },
        {
            "inputs": [],
            "name": "fileCount",
            "outputs": [
                {
                    "internalType": "uint256",
                    "name": "",
                    "type": "uint256"
                }
            ],
            "stateMutability": "view",
            "type": "function"
        },
        {
            "inputs": [
                {
                    "internalType": "uint256",
                    "name": "",
                    "type": "uint256"
                }
            ],
            "name": "files",
            "outputs": [
                {
                    "internalType": "uint256",
                    "name": "fileId",
                    "type": "uint256"
                },
                {
                    "internalType": "string",
                    "name": "fileHash",
                    "type": "string"
                },
                {
                    "internalType": "uint256",
                    "name": "fileSize",
                    "type": "uint256"
                },
                {
                    "internalType": "string",
                    "name": "fileType",
                    "type": "string"
                },
                {
                    "internalType": "string",
                    "name": "fileName",
                    "type": "string"
                },
                {
                    "internalType": "string",
                    "name": "fileDescription",
                    "type": "string"
                },
                {
                    "internalType": "uint256",
                    "name": "uploadTime",
                    "type": "uint256"
                },
                {
                    "internalType": "address",
                    "name": "forger",
                    "type": "address"
                }
            ],
            "stateMutability": "view",
            "type": "function"
        },
        {
            "inputs": [
                {
                    "internalType": "uint256",
                    "name": "tokenId",
                    "type": "uint256"
                }
            ],
            "name": "getApproved",
            "outputs": [
                {
                    "internalType": "address",
                    "name": "",
                    "type": "address"
                }
            ],
            "stateMutability": "view",
            "type": "function"
        },
        {
            "inputs": [
                {
                    "internalType": "address",
                    "name": "owner",
                    "type": "address"
                },
                {
                    "internalType": "address",
                    "name": "operator",
                    "type": "address"
                }
            ],
            "name": "isApprovedForAll",
            "outputs": [
                {
                    "internalType": "bool",
                    "name": "",
                    "type": "bool"
                }
            ],
            "stateMutability": "view",
            "type": "function"
        },
        {
            "inputs": [
                {
                    "internalType": "string",
                    "name": "_fileHash",
                    "type": "string"
                },
                {
                    "internalType": "uint256",
                    "name": "_fileSize",
                    "type": "uint256"
                },
                {
                    "internalType": "string",
                    "name": "_fileType",
                    "type": "string"
                },
                {
                    "internalType": "string",
                    "name": "_fileName",
                    "type": "string"
                },
                {
                    "internalType": "string",
                    "name": "_fileDescription",
                    "type": "string"
                }
            ],
            "name": "mint",
            "outputs": [],
            "stateMutability": "nonpayable",
            "type": "function"
        },
        {
            "inputs": [],
            "name": "name",
            "outputs": [
                {
                    "internalType": "string",
                    "name": "",
                    "type": "string"
                }
            ],
            "stateMutability": "view",
            "type": "function"
        },
        {
            "inputs": [
                {
                    "internalType": "uint256",
                    "name": "tokenId",
                    "type": "uint256"
                }
            ],
            "name": "ownerOf",
            "outputs": [
                {
                    "internalType": "address",
                    "name": "",
                    "type": "address"
                }
            ],
            "stateMutability": "view",
            "type": "function"
        },
        {
            "inputs": [],
            "name": "pool",
            "outputs": [
                {
                    "internalType": "uint256",
                    "name": "",
                    "type": "uint256"
                }
            ],
            "stateMutability": "view",
            "type": "function"
        },
        {
            "inputs": [
                {
                    "internalType": "address",
                    "name": "from",
                    "type": "address"
                },
                {
                    "internalType": "address",
                    "name": "to",
                    "type": "address"
                },
                {
                    "internalType": "uint256",
                    "name": "tokenId",
                    "type": "uint256"
                }
            ],
            "name": "safeTransferFrom",
            "outputs": [],
            "stateMutability": "nonpayable",
            "type": "function"
        },
        {
            "inputs": [
                {
                    "internalType": "address",
                    "name": "from",
                    "type": "address"
                },
                {
                    "internalType": "address",
                    "name": "to",
                    "type": "address"
                },
                {
                    "internalType": "uint256",
                    "name": "tokenId",
                    "type": "uint256"
                },
                {
                    "internalType": "bytes",
                    "name": "_data",
                    "type": "bytes"
                }
            ],
            "name": "safeTransferFrom",
            "outputs": [],
            "stateMutability": "nonpayable",
            "type": "function"
        },
        {
            "inputs": [
                {
                    "internalType": "address",
                    "name": "operator",
                    "type": "address"
                },
                {
                    "internalType": "bool",
                    "name": "approved",
                    "type": "bool"
                }
            ],
            "name": "setApprovalForAll",
            "outputs": [],
            "stateMutability": "nonpayable",
            "type": "function"
        },
        {
            "inputs": [
                {
                    "internalType": "bytes4",
                    "name": "interfaceId",
                    "type": "bytes4"
                }
            ],
            "name": "supportsInterface",
            "outputs": [
                {
                    "internalType": "bool",
                    "name": "",
                    "type": "bool"
                }
            ],
            "stateMutability": "view",
            "type": "function"
        },
        {
            "inputs": [],
            "name": "symbol",
            "outputs": [
                {
                    "internalType": "string",
                    "name": "",
                    "type": "string"
                }
            ],
            "stateMutability": "view",
            "type": "function"
        },
        {
            "inputs": [
                {
                    "internalType": "uint256",
                    "name": "tokenId",
                    "type": "uint256"
                }
            ],
            "name": "tokenURI",
            "outputs": [
                {
                    "internalType": "string",
                    "name": "",
                    "type": "string"
                }
            ],
            "stateMutability": "view",
            "type": "function"
        },
        {
            "inputs": [],
            "name": "totalPool",
            "outputs": [
                {
                    "internalType": "uint256",
                    "name": "",
                    "type": "uint256"
                }
            ],
            "stateMutability": "view",
            "type": "function"
        },
        {
            "inputs": [],
            "name": "totalSupply",
            "outputs": [
                {
                    "internalType": "uint256",
                    "name": "",
                    "type": "uint256"
                }
            ],
            "stateMutability": "view",
            "type": "function"
        },
        {
            "inputs": [
                {
                    "internalType": "address",
                    "name": "from",
                    "type": "address"
                },
                {
                    "internalType": "address",
                    "name": "to",
                    "type": "address"
                },
                {
                    "internalType": "uint256",
                    "name": "tokenId",
                    "type": "uint256"
                }
            ],
            "name": "transferFrom",
            "outputs": [],
            "stateMutability": "nonpayable",
            "type": "function"
        }
    ],
    "bytecode": "60806040526000600655600060075560646008553480156200002057600080fd5b50604080518082018252600b81526a4f636861696e4d7573696360a81b6020808301918252835180850190945260038452624f434d60e81b9084015281519192916200006f916000916200009f565b508051620000859060019060208401906200009f565b505060006006555067016345785d8a0000600a5562000182565b828054620000ad9062000145565b90600052602060002090601f016020900481019282620000d157600085556200011c565b82601f10620000ec57805160ff19168380011785556200011c565b828001600101855582156200011c579182015b828111156200011c578251825591602001919060010190620000ff565b506200012a9291506200012e565b5090565b5b808211156200012a57600081556001016200012f565b600181811c908216806200015a57607f821691505b602082108114156200017c57634e487b7160e01b600052602260045260246000fd5b50919050565b611a6880620001926000396000f3fe608060405234801561001057600080fd5b50600436106101215760003560e01c80636352211e116100ad578063c87b56dd11610071578063c87b56dd14610245578063e985e9c514610258578063ecfb49a314610294578063f41976081461029d578063f4c714b4146102b057610121565b80636352211e146101f157806370a082311461020457806395d89b4114610217578063a22cb4651461021f578063b88d4fde1461023257610121565b806316f0115b116100f457806316f0115b146101a357806318160ddd146101ba57806323b872dd146101c257806342842e0e146101d557806343953519146101e857610121565b806301ffc9a71461012657806306fdde031461014e578063081812fc14610163578063095ea7b31461018e575b600080fd5b61013961013436600461162c565b6102d7565b60405190151581526020015b60405180910390f35b61015661032b565b60405161014591906117c6565b610176610171366004611716565b6103bd565b6040516001600160a01b039091168152602001610145565b6101a161019c366004611603565b610457565b005b6101ac60075481565b604051908152602001610145565b6006546101ac565b6101a16101d0366004611515565b61056d565b6101a16101e3366004611515565b61059e565b6101ac60065481565b6101766101ff366004611716565b6105b9565b6101ac6102123660046114c9565b610630565b6101566106b7565b6101a161022d3660046115c9565b6106c6565b6101a1610240366004611550565b610798565b610156610253366004611716565b6107d0565b6101396102663660046114e3565b6001600160a01b03918216600090815260056020908152604080832093909416825291909152205460ff1690565b6101ac60085481565b6101a16102ab366004611664565b6108b8565b6102c36102be366004611716565b610a77565b60405161014598979695949392919061187c565b60006001600160e01b031982166380ac58cd60e01b148061030857506001600160e01b03198216635b5e139f60e01b145b8061032357506301ffc9a760e01b6001600160e01b03198316145b90505b919050565b60606000805461033a9061196d565b80601f01602080910402602001604051908101604052809291908181526020018280546103669061196d565b80156103b35780601f10610388576101008083540402835291602001916103b3565b820191906000526020600020905b81548152906001019060200180831161039657829003601f168201915b5050505050905090565b6000818152600260205260408120546001600160a01b031661043b5760405162461bcd60e51b815260206004820152602c60248201527f4552433732313a20617070726f76656420717565727920666f72206e6f6e657860448201526b34b9ba32b73a103a37b5b2b760a11b60648201526084015b60405180910390fd5b506000908152600460205260409020546001600160a01b031690565b6000610462826105b9565b9050806001600160a01b0316836001600160a01b031614156104d05760405162461bcd60e51b815260206004820152602160248201527f4552433732313a20617070726f76616c20746f2063757272656e74206f776e656044820152603960f91b6064820152608401610432565b336001600160a01b03821614806104ec57506104ec8133610266565b61055e5760405162461bcd60e51b815260206004820152603860248201527f4552433732313a20617070726f76652063616c6c6572206973206e6f74206f7760448201527f6e6572206e6f7220617070726f76656420666f7220616c6c00000000000000006064820152608401610432565b6105688383610ce2565b505050565b6105773382610d50565b6105935760405162461bcd60e51b81526004016104329061182b565b610568838383610e47565b61056883838360405180602001604052806000815250610798565b6000818152600260205260408120546001600160a01b0316806103235760405162461bcd60e51b815260206004820152602960248201527f4552433732313a206f776e657220717565727920666f72206e6f6e657869737460448201526832b73a103a37b5b2b760b91b6064820152608401610432565b60006001600160a01b03821661069b5760405162461bcd60e51b815260206004820152602a60248201527f4552433732313a2062616c616e636520717565727920666f7220746865207a65604482015269726f206164647265737360b01b6064820152608401610432565b506001600160a01b031660009081526003602052604090205490565b60606001805461033a9061196d565b6001600160a01b03821633141561071f5760405162461bcd60e51b815260206004820152601960248201527f4552433732313a20617070726f766520746f2063616c6c6572000000000000006044820152606401610432565b3360008181526005602090815260408083206001600160a01b0387168085529252909120805460ff1916841515179055906001600160a01b03167f17307eab39ab6107e8899845ad3d59bd9653f200f220920489ca2b5937696c318360405161078c911515815260200190565b60405180910390a35050565b6107a23383610d50565b6107be5760405162461bcd60e51b81526004016104329061182b565b6107ca84848484610fe7565b50505050565b6000818152600260205260409020546060906001600160a01b031661084f5760405162461bcd60e51b815260206004820152602f60248201527f4552433732314d657461646174613a2055524920717565727920666f72206e6f60448201526e3732bc34b9ba32b73a103a37b5b2b760891b6064820152608401610432565b600061086660408051602081019091526000815290565b9050600081511161088657604051806020016040528060008152506108b1565b806108908461101a565b6040516020016108a192919061175a565b6040516020818303038152906040525b9392505050565b60008551116108c657600080fd5b60008351116108d457600080fd5b60008151116108e257600080fd5b60008251116108f057600080fd5b336108fa57600080fd5b6000841161090757600080fd5b60068054906000610917836119a8565b909155505060408051610100810182526006548082526020808301898152838501899052606084018890526080840187905260a084018690524260c08501523360e08501526000928352600982529390912082518155925180519293926109849260018501920190611384565b5060408201516002820155606082015180516109aa916003840191602090910190611384565b50608082015180516109c6916004840191602090910190611384565b5060a082015180516109e2916005840191602090910190611384565b5060c0820151816006015560e08201518160070160006101000a8154816001600160a01b0302191690836001600160a01b03160217905550905050610a2933600654611135565b7f34357ee9229b7532501a9d48d79874bfe7ee7e90bf6821813cedc9abc32cc1a860065486868686864233604051610a6898979695949392919061187c565b60405180910390a15050505050565b60096020526000908152604090208054600182018054919291610a999061196d565b80601f0160208091040260200160405190810160405280929190818152602001828054610ac59061196d565b8015610b125780601f10610ae757610100808354040283529160200191610b12565b820191906000526020600020905b815481529060010190602001808311610af557829003601f168201915b505050505090806002015490806003018054610b2d9061196d565b80601f0160208091040260200160405190810160405280929190818152602001828054610b599061196d565b8015610ba65780601f10610b7b57610100808354040283529160200191610ba6565b820191906000526020600020905b815481529060010190602001808311610b8957829003601f168201915b505050505090806004018054610bbb9061196d565b80601f0160208091040260200160405190810160405280929190818152602001828054610be79061196d565b8015610c345780601f10610c0957610100808354040283529160200191610c34565b820191906000526020600020905b815481529060010190602001808311610c1757829003601f168201915b505050505090806005018054610c499061196d565b80601f0160208091040260200160405190810160405280929190818152602001828054610c759061196d565b8015610cc25780601f10610c9757610100808354040283529160200191610cc2565b820191906000526020600020905b815481529060010190602001808311610ca557829003601f168201915b5050505060068301546007909301549192916001600160a01b0316905088565b600081815260046020526040902080546001600160a01b0319166001600160a01b0384169081179091558190610d17826105b9565b6001600160a01b03167f8c5be1e5ebec7d5bd14f71427d1e84f3dd0314c0f7b2291e5b200ac8c7c3b92560405160405180910390a45050565b6000818152600260205260408120546001600160a01b0316610dc95760405162461bcd60e51b815260206004820152602c60248201527f4552433732313a206f70657261746f7220717565727920666f72206e6f6e657860448201526b34b9ba32b73a103a37b5b2b760a11b6064820152608401610432565b6000610dd4836105b9565b9050806001600160a01b0316846001600160a01b03161480610e0f5750836001600160a01b0316610e04846103bd565b6001600160a01b0316145b80610e3f57506001600160a01b0380821660009081526005602090815260408083209388168352929052205460ff165b949350505050565b826001600160a01b0316610e5a826105b9565b6001600160a01b031614610ec25760405162461bcd60e51b815260206004820152602960248201527f4552433732313a207472616e73666572206f6620746f6b656e2074686174206960448201526839903737ba1037bbb760b91b6064820152608401610432565b6001600160a01b038216610f245760405162461bcd60e51b8152602060048201526024808201527f4552433732313a207472616e7366657220746f20746865207a65726f206164646044820152637265737360e01b6064820152608401610432565b610f2f600082610ce2565b6001600160a01b0383166000908152600360205260408120805460019290610f5890849061192a565b90915550506001600160a01b0382166000908152600360205260408120805460019290610f869084906118fe565b909155505060008181526002602052604080822080546001600160a01b0319166001600160a01b0386811691821790925591518493918716917fddf252ad1be2c89b69c2b068fc378daa952ba7f163c4a11628f55a4df523b3ef91a4505050565b610ff2848484610e47565b610ffe84848484611277565b6107ca5760405162461bcd60e51b8152600401610432906117d9565b60608161103f57506040805180820190915260018152600360fc1b6020820152610326565b8160005b81156110695780611053816119a8565b91506110629050600a83611916565b9150611043565b60008167ffffffffffffffff81111561109257634e487b7160e01b600052604160045260246000fd5b6040519080825280601f01601f1916602001820160405280156110bc576020820181803683370190505b5090505b8415610e3f576110d160018361192a565b91506110de600a866119c3565b6110e99060306118fe565b60f81b81838151811061110c57634e487b7160e01b600052603260045260246000fd5b60200101906001600160f81b031916908160001a90535061112e600a86611916565b94506110c0565b6001600160a01b03821661118b5760405162461bcd60e51b815260206004820181905260248201527f4552433732313a206d696e7420746f20746865207a65726f20616464726573736044820152606401610432565b6000818152600260205260409020546001600160a01b0316156111f05760405162461bcd60e51b815260206004820152601c60248201527f4552433732313a20746f6b656e20616c7265616479206d696e746564000000006044820152606401610432565b6001600160a01b03821660009081526003602052604081208054600192906112199084906118fe565b909155505060008181526002602052604080822080546001600160a01b0319166001600160a01b03861690811790915590518392907fddf252ad1be2c89b69c2b068fc378daa952ba7f163c4a11628f55a4df523b3ef908290a45050565b60006001600160a01b0384163b1561137957604051630a85bd0160e11b81526001600160a01b0385169063150b7a02906112bb903390899088908890600401611789565b602060405180830381600087803b1580156112d557600080fd5b505af1925050508015611305575060408051601f3d908101601f1916820190925261130291810190611648565b60015b61135f573d808015611333576040519150601f19603f3d011682016040523d82523d6000602084013e611338565b606091505b5080516113575760405162461bcd60e51b8152600401610432906117d9565b805181602001fd5b6001600160e01b031916630a85bd0160e11b149050610e3f565b506001949350505050565b8280546113909061196d565b90600052602060002090601f0160209004810192826113b257600085556113f8565b82601f106113cb57805160ff19168380011785556113f8565b828001600101855582156113f8579182015b828111156113f85782518255916020019190600101906113dd565b50611404929150611408565b5090565b5b808211156114045760008155600101611409565b600067ffffffffffffffff8084111561143857611438611a03565b604051601f8501601f19908116603f0116810190828211818310171561146057611460611a03565b8160405280935085815286868601111561147957600080fd5b858560208301376000602087830101525050509392505050565b80356001600160a01b038116811461032657600080fd5b600082601f8301126114ba578081fd5b6108b18383356020850161141d565b6000602082840312156114da578081fd5b6108b182611493565b600080604083850312156114f5578081fd5b6114fe83611493565b915061150c60208401611493565b90509250929050565b600080600060608486031215611529578081fd5b61153284611493565b925061154060208501611493565b9150604084013590509250925092565b60008060008060808587031215611565578081fd5b61156e85611493565b935061157c60208601611493565b925060408501359150606085013567ffffffffffffffff81111561159e578182fd5b8501601f810187136115ae578182fd5b6115bd8782356020840161141d565b91505092959194509250565b600080604083850312156115db578182fd5b6115e483611493565b9150602083013580151581146115f8578182fd5b809150509250929050565b60008060408385031215611615578182fd5b61161e83611493565b946020939093013593505050565b60006020828403121561163d578081fd5b81356108b181611a19565b600060208284031215611659578081fd5b81516108b181611a19565b600080600080600060a0868803121561167b578081fd5b853567ffffffffffffffff80821115611692578283fd5b61169e89838a016114aa565b96506020880135955060408801359150808211156116ba578283fd5b6116c689838a016114aa565b945060608801359150808211156116db578283fd5b6116e789838a016114aa565b935060808801359150808211156116fc578283fd5b50611709888289016114aa565b9150509295509295909350565b600060208284031215611727578081fd5b5035919050565b60008151808452611746816020860160208601611941565b601f01601f19169290920160200192915050565b6000835161176c818460208801611941565b835190830190611780818360208801611941565b01949350505050565b6001600160a01b03858116825284166020820152604081018390526080606082018190526000906117bc9083018461172e565b9695505050505050565b6000602082526108b1602083018461172e565b60208082526032908201527f4552433732313a207472616e7366657220746f206e6f6e20455243373231526560408201527131b2b4bb32b91034b6b83632b6b2b73a32b960711b606082015260800190565b60208082526031908201527f4552433732313a207472616e736665722063616c6c6572206973206e6f74206f6040820152701ddb995c881b9bdc88185c1c1c9bdd9959607a1b606082015260800190565b60006101008a83528060208401526118968184018b61172e565b905088604084015282810360608401526118b0818961172e565b905082810360808401526118c4818861172e565b905082810360a08401526118d8818761172e565b60c084019590955250506001600160a01b039190911660e0909101529695505050505050565b60008219821115611911576119116119d7565b500190565b600082611925576119256119ed565b500490565b60008282101561193c5761193c6119d7565b500390565b60005b8381101561195c578181015183820152602001611944565b838111156107ca5750506000910152565b600181811c9082168061198157607f821691505b602082108114156119a257634e487b7160e01b600052602260045260246000fd5b50919050565b60006000198214156119bc576119bc6119d7565b5060010190565b6000826119d2576119d26119ed565b500690565b634e487b7160e01b600052601160045260246000fd5b634e487b7160e01b600052601260045260246000fd5b634e487b7160e01b600052604160045260246000fd5b6001600160e01b031981168114611a2f57600080fd5b5056fea26469706673582212205bbadb756694ba2e041b57a6fbcdbe572f4cc755036bd7e54d41b5786ea15c8664736f6c63430008030033",
    "sourcePath": "/home/brunocosta/projetos/bmcrecords/nft/src/contracts/OchainMusic.sol",
    "compiler": {
        "name": "solc",
        "version": "0.8.3+commit.8d00100c"
    },
    "functionHashes": {
        "approve(address,uint256)": "095ea7b3",
        "balanceOf(address)": "70a08231",
        "fileCount()": "43953519",
        "files(uint256)": "f4c714b4",
        "getApproved(uint256)": "081812fc",
        "isApprovedForAll(address,address)": "e985e9c5",
        "mint(string,uint256,string,string,string)": "f4197608",
        "name()": "06fdde03",
        "ownerOf(uint256)": "6352211e",
        "pool()": "16f0115b",
        "safeTransferFrom(address,address,uint256)": "42842e0e",
        "safeTransferFrom(address,address,uint256,bytes)": "b88d4fde",
        "setApprovalForAll(address,bool)": "a22cb465",
        "supportsInterface(bytes4)": "01ffc9a7",
        "symbol()": "95d89b41",
        "tokenURI(uint256)": "c87b56dd",
        "totalPool()": "ecfb49a3",
        "totalSupply()": "18160ddd",
        "transferFrom(address,address,uint256)": "23b872dd"
    },
    "gasEstimates": {
        "creation": {
            "codeDepositCost": "1352000",
            "executionCost": "infinite",
            "totalCost": "infinite"
        },
        "external": {
            "approve(address,uint256)": "infinite",
            "balanceOf(address)": "1334",
            "fileCount()": "1106",
            "files(uint256)": "infinite",
            "getApproved(uint256)": "2160",
            "isApprovedForAll(address,address)": "infinite",
            "mint(string,uint256,string,string,string)": "infinite",
            "name()": "infinite",
            "ownerOf(uint256)": "1279",
            "pool()": "1018",
            "safeTransferFrom(address,address,uint256)": "infinite",
            "safeTransferFrom(address,address,uint256,bytes)": "infinite",
            "setApprovalForAll(address,bool)": "23338",
            "supportsInterface(bytes4)": "538",
            "symbol()": "infinite",
            "tokenURI(uint256)": "infinite",
            "totalPool()": "1061",
            "totalSupply()": "1037",
            "transferFrom(address,address,uint256)": "infinite"
        },
        "internal": {
            "transferCopyright(address,address,uint256)": "infinite"
        }
    }
}